:020000040800F2
:10000000480500209D010008D71C0008151B0008AA
:10001000D51C00080D0400082D2500080000000074
:10002000000000000000000000000000DB1C0008D1
:100030000F04000800000000D91C0008DD1C0008A7
:10004000B7010008B7010008B7010008B7010008B0
:10005000B7010008B7010008B7010008B7010008A0
:10006000B7010008B7010008B7010008B701000890
:10007000B7010008B7010008B7010008B701000880
:10008000B7010008B7010008B7010008B701000870
:10009000B7010008B7010008B7010008B701000860
:1000A000B7010008B7010008B7010008B701000850
:1000B000B91D0008B7010008B7010008B701000822
:1000C000B7010008B7010008B7010008B701000830
:1000D000B7010008B7010008B70100082125000892
:1000E000B7010008B7010008B7010008B701000810
:1000F000B7010008B7010008B7010008B701000800
:10010000B7010008B7010008B7010008B7010008EF
:10011000B7010008B7010008B7010008B7010008DF
:10012000B7010008B7010008B7010008B7010008CF
:10013000B7010008B7010008B7010008B7010008BF
:10014000B7010008B7010008B7010008B7010008AF
:10015000B7010008B7010008B7010008B70100089F
:10016000B7010008B7010008B7010008B70100088F
:10017000B7010008B7010008B7010008000000003F
:10018000B7010008B7010008DFF80CD000F098F8BC
:1001900000480047712700084805002006488047AE
:1001A00006480047FEE7FEE7FEE7FEE7FEE7FEE75C
:1001B000FEE7FEE7FEE7FEE7651D0008890100088F
:1001C0002DE9F05F0546002092469B46884606468C
:1001D000814640241BE0284641464746224600F01F
:1001E0005EF853465A46C01A914110D3114618463C
:1001F000224600F045F82D1A67EB01084F462246CB
:100200000120002100F03CF817EB00094E41201EB0
:10021000A4F10104DFDC484631462A464346BDE8E6
:10022000F09FD2B201E000F8012B491EFBD27047CB
:100230000022F6E710B513460A4604461946FFF7B2
:10024000F0FF204610BD421C10F8011B0029FBD115
:10025000801A704730B50B46014600202022012449
:1002600009E021FA02F59D4205D303FA02F5491B84
:1002700004FA02F52844151EA2F10102F1DC30BD9A
:10028000202A04DB203A00FA02F100207047914056
:10029000C2F1200320FA03F3194390407047202A4B
:1002A00004DB203A21FA02F00021704721FA02F320
:1002B000D040C2F120029140084319467047000027
:1002C000064C074D06E0E06840F0010394E80700A3
:1002D00098471034AC42F6D3FFF75AFF9C29000828
:1002E000BC290008464910B54A6822F440324A60E9
:1002F0004A6843681A434A6001684A6822F4807277
:100300004A6001684A68036942EA03224A60016858
:100310004A6822F040724A6001684A6883681A435A
:100320004A6001688A6822F400628A6001688A680B
:10033000C3681A438A60816A6FF07062D1420168B3
:100340008A6822F070628A6001688A680CD0836AC9
:100350001A438A6001688A6822F040528A60016804
:100360008A68C36A1A4301E022F040528A60016839
:100370008A6822F002028A6001688A68037E42EA83
:1003800043028A6090F82010002901684A680FD063
:1003900042F400624A6001684A6822F460424A609E
:1003A00001684A68174C436A04EB43331A4301E07F
:1003B00022F400624A600168CA6A22F47002CA62CA
:1003C0000168CA6A838B104C04EB03531A43CA6258
:1003D00001688A6822F400728A6001688A6890F86D
:1003E000303042EA43228A6001688A6822F48062DF
:1003F0008A6001688A68406942EA8020886010BD8E
:100400000023014000E0FFFF0000F0FFFEE770471F
:1004100078B50024009490F83C20012A19D00122DC
:1004200080F83C200A6807230568092A13D9EE687A
:100430000A3A02EB420293409E43EE600B788A68D0
:100440000A3B03EB43039A400368DD682A43DA6002
:1004500010E0022078BD2E6902EB420293409E43D9
:100460002E610B788A6803EB43039A4003681D6989
:100470002A431A614A681F23072A13D205686E6B44
:10048000521E02EB820293409E436E630B790A88F0
:100490005B1E92B203EB83039A4003685D6B2A43B1
:1004A0005A6327E005680D2A12D22E6BD21F02EB89
:1004B000820293409E432E630B790A88DB1F92B21F
:1004C00003EB83039A4003681D6B2A431A6311E010
:1004D000EE6A0D3A02EB820293409E43EE620B7984
:1004E0000A880D3B92B203EB83039A400368DD6AEE
:1004F0002A43DA62164B0568144A9D4206D10D68FC
:10050000122D03D1556845F48005556005689D425C
:1005100018D10B68102B01D0112B13D1536843F461
:1005200000035360096810290CD10A490A4A096876
:10053000B1FBF2F101EB8101490000E0491E00919D
:100540000029FBD180F83C40002078BD0023014009
:10055000002001401000002040420F000068C06CE5
:10056000704770B504004FF0000503D0206C0026E2
:1005700010B107E0012070BD204600F01DF8666450
:1005800084F83C60206CC00610D4206C20F48850A5
:1005900040F0020020642046FFF7A4FE6664206C51
:1005A00020F0020040F00100206400E0012584F802
:1005B0003C60284670BD000010B586B0044614218A
:1005C0006846FFF735FE1149206888421CD1104863
:1005D0000021026842F480720260006800F48070BA
:1005E00005900B481438026842F00202026000686D
:1005F00000F002000590012000900320CDE90101E8
:100600006946044800F09EF906B010BD0020014084
:1006100044380240000402402DE9F04104460068DD
:100620000D4681684FF0000749050BD58068C0056D
:1006300008D5206C40F02000206484F83C70012034
:10064000BDE8F08100F05CFA06460FE0681C0DD0B2
:1006500025B100F055FA801BA84207D9206C40F064
:100660000400206484F83C700320E9E720680068F7
:100670008007EBD521686FF012000860206C40F411
:10068000007020642068816811F0405F13D1217EE2
:1006900089B9C16A11F4700F02D0806840050AD48C
:1006A000206C20F480702064206CC00403D4206C83
:1006B00040F0010020640020C2E7000018B50021CE
:1006C000009190F83C20012A07D0012280F83C20BC
:1006D00002689368DB0702D011E0022018BD93681E
:1006E00043F0010393602A4A2A4B1268B2FBF3F2EB
:1006F00002EB420200E0521E0092002AFBD1026887
:100700009368DB0741D0036C40F20164A34343F4D8
:100710008073036453685B0505D5036C23F40053B1
:1007200043F480530364036CDB0404D5436C23F06F
:100730000603436400E0416480F83C1016496FF002
:100740002203136049680068CA06144906D088422B
:100750001BD1816811F0405F13D016E08842F8D0B9
:100760000F4A904203D1D1F80423D206F1D00D4AAA
:1007700090420AD1D1F8041301F01F011029E8D3E7
:1007800003E0816841F080418160002018BD0000D5
:100790001000002040420F000023014000200140D3
:1007A000002101400022014070B54379012B1AD08D
:1007B000012646710223037105682C6840F6FE731A
:1007C00093409C43D1E900310B43934023432B607A
:1007D00001680B68C0249440A3430B60067100219C
:1007E0004171084670BD022070BD70B5040003D091
:1007F0002079002510B105E0012070BD657120460B
:1008000000F008F8022020712561012020710020ED
:1008100070BD000010B586B0044614216846FFF78D
:1008200007FD1149206888421CD110480021026848
:1008300042F000520260006800F0005005900B4842
:100840001038026842F001020260006800F0010006
:100850000590102000900320CDE90101694604486D
:1008600000F070F806B010BD00740040403802403F
:100870000000024018B5046800940068104421B1DB
:10088000143000900360002018BD0830F9E730B53F
:100890004279012A16D001224271022303710368B2
:1008A0001D6802FA01F425431D60002901680B68E8
:1008B0000AD00C6803F4802304F46014B3F5802F8D
:1008C0000FD015E0022030BD0C6803F0040304F0E3
:1008D0003804042B0CD1382C0AD14B6843F00103A7
:1008E00005E0B4F5601F03D14B6843F002034B6091
:1008F000027100214171084630BD90F8351002297F
:1009000003D08021416501207047052180F8351012
:100910000068016821F001010160002070470000BB
:1009200070B5044600F0ECF80546601C02D004489F
:100930000078044400F0E4F8401BA042FAD370BDF4
:10094000040000202DE9F84FDFF87CB100224FF0C1
:1009500001084FF0030A4FF00F090BF1040E00BF1E
:100960000B6808FA02F42340A3426ED14D68022DB1
:1009700001D0122D0ED1D50800EB850CDCF82050EB
:100980005607F70E09FA07F6B5430E69BE402E4327
:10099000CCF82060066855000F790AFA05FC07F0CC
:1009A000030726EA0C06AF40374307604E68012E66
:1009B00005D0022E03D0112E01D0122E0ED1866842
:1009C000CF6826EA0C06AF40374387604668A643E7
:1009D0000C79C4F30014944034434460C6688C68B6
:1009E00026EA0C06AC403443C4604C68E40065D58C
:1009F000364C256845F480452560246822F00305BF
:100A000004F480440094324C2E19D6F80848950717
:100A10002F0F09FA07F5AC432E4DA84201D100254E
:100A200024E02D4DA84201D101251FE02B4DA84205
:100A300001D102251AE02A4DA84201D1032515E073
:100A4000284DA84202D1042510E037E0264DA842E7
:100A500001D105250AE0254DA84201D1062505E072
:100A6000234DA84201D1072500E00825BD402543BC
:100A7000C6F80858DBF800405D464E689C43F60314
:100A800000D51C432C60DEF8004075464E689C4340
:100A9000B60300D51C432C600B4D08352C684E68FE
:100AA0009C43F60200D51C432C60074D0C352C6886
:100AB0004E689C43B60200D51C432C60521C102A81
:100AC000FFF44EAFBDE8F88F003C014044380240CF
:100AD00000300140000002400004024000080240D3
:100AE000000C0240001002400014024000180240B6
:100AF000001C02400069084000D00120704700003F
:100B000001488068704700000400002002488168A6
:100B10000278114481607047040000200B4810B532
:100B2000016841F400710160016841F48061016075
:100B3000016841F480710160032000F06FF800202B
:100B400000F006F800F024F8002010BD003C024040
:100B500070B50D4D04464FF47A712878B1FBF0F072
:100B60000A490968B1FBF0F000F0E2FA48B9102C2C
:100B700007D200222146501E00F030F800206C60A1
:100B800070BD012070BD0000040000201000002096
:100B90000A4808B5016841F480410160006800F42A
:100BA000804000900548001F016841F080510160BD
:100BB000006800F08050009008BD000044380240FA
:100BC000002809DB00F01F0201219140400980004C
:100BD00000F1E020C0F8001170470000F0B40E4BA7
:100BE0001B680C46C3F30223C3F10705042D00D98B
:100BF0000425191D072901D2002300E0DB1E012670
:100C000006FA05F1491E214099409E40761E164085
:100C10003143F0BC01F09CBC0CED00E0064900F053
:100C2000070208684FF6FF03184040EA0220034A13
:100C300010430860704700000CED00E00000FA056A
:100C40002DE9F0470E46050065D0DFF81481D8F88D
:100C50000000F7B200F00F00B04207D288F8007031
:100C6000D8F8000000F00F00B04254D128683D4C85
:100C7000810712D5400703D5206840F4E05020607A
:100C80002878000703D5206840F460402060206881
:100C9000A96820F0F000084320602878C0072DD014
:100CA000304968680839012812D0022813D0032877
:100CB00011D00968890700292DDA216821F0030184
:100CC00001432160FFF71CFF814641F2883A0EE0A4
:100CD00009688903EFE709688901ECE7FFF710FF6E
:100CE000A0EB0901514502D90320BDE8F087206837
:100CF000696800F00C00B0EB810FEFD1D8F800105C
:100D0000404601F00F01B14207D90770006800F0BA
:100D10000F00B04201D00120E7E72878400705D551
:100D20002068E96820F4E050084320602878000734
:100D300006D52068296920F4604040EAC10020609F
:100D400000F036F82168084AC1F30311515CC8402D
:100D5000064908600020FFF7FBFE0020C5E7000001
:100D6000003C02400838024084290008100000209E
:100D70000448054900680968044AC1F38221515CAE
:100D8000C84070471000002008380240942900082D
:100D90000448054900680968044AC1F34231515CBE
:100DA000C84070471000002008380240942900080D
:100DB000154810B5006810F00C02144813D01449FF
:100DC000042A0FD0082A0ED10F4C241F2268236852
:100DD00002F03F025B0207D52068C0F38810A0FB39
:100DE000010106E0084610BD2168C1F38811A1FB8E
:100DF00000010023FFF7E4F92168C1F30141491C18
:100E00004900B0FBF1F010BD083802400024F400A6
:100E100040787D012DE9F84F050076D02878DFF87D
:100E2000F8B2BE4CC00749D0DBF800105846C1F3F9
:100E30008101012908D00068C0F3810002280AD18D
:100E4000201D0068400206D52068800336D56868FA
:100E50000028E2D032E06868B0F5803F10D0B0F5ED
:100E6000A02F206810D020F480302060206820F46B
:100E7000802020606868A0B1FFF742FE06460CE0C3
:100E8000206840F48030F4E740F480202060F7E7E9
:100E9000FFF736FE801B642873D820688003F7D5DF
:100EA0000CE0FFF72DFE064605E000BFFFF728FE29
:100EB000801B6428F0D820688003F7D42878DFF8F6
:100EC000608280074FF000093ED5DBF800105846DD
:100ED00011F00C0F09D00068C0F3810002280BD17B
:100EE0008D48001F0068400206D42068800715D591
:100EF000E868012809D111E0E868B8B10120C8F814
:100F00000000FFF7FDFD064605E002E1FFF7F8FDF2
:100F1000801B0228C0D820688007F7D5206829697F
:100F200020F0F80040EAC10020600DE0C8F8009011
:100F3000FFF7E6FD064604E0FFF7E2FD801B02280E
:100F40001FD820688007F7D42878000722D5724E72
:100F5000744869696C3671B101210160FFF7D0FDF9
:100F6000074604E0FFF7CCFDC01B022809D8306813
:100F70008007F7D50EE0C0F80090FFF7C1FD0746E7
:100F800005E083E0FFF7BCFDC01B02287ED8306877
:100F90008007F7D42878400768D5DFF87CA10027C0
:100FA0000AF1380ADAF80000C0000BD4DAF80010B1
:100FB00041F08051CAF80010DAF80000012700F073
:100FC00080500090584E3068C00510D4306840F40E
:100FD00080703060FFF794FD009005E0FFF790FD12
:100FE0000099401A022851D83068C005F6D54A4EFB
:100FF000A868683601280FD00528306810D020F086
:1010000001003060306820F004003060A868B8B19A
:10101000FFF776FD00900FE0306840F00100F4E744
:1010200040F004003060F7E7FFF76AFD0099411ACD
:1010300041F28830814264D830688007F4D50EE0F0
:10104000FFF75EFD009007E0FFF75AFD0099411A97
:1010500041F28830814254D830688007F4D42FB1EF
:10106000DAF8001021F08051CAF80010A869C0B366
:10107000DBF80010C1F3810102294AD0022848465A
:1010800007D0C8F86000FFF73BFD00E039E00546F7
:101090003AE04746C8F86000FFF732FD064604E034
:1010A000FFF72EFD801B02282BD820688001F7D483
:1010B000D5E907010843A96A1C4A490802EB014126
:1010C0006A6A41EA8211084395F82C1040EA0161EE
:1010D0001148001F016001203866FFF711FD054629
:1010E00005E014E0FFF70CFD401B022809D820683A
:1010F0008001F7D50BE000BFFFF702FD401B02287F
:1011000002D90320BDE8F88F20688001F4D40020C4
:10111000F8E70120F6E700000838024000380240F6
:1011200000004742800E4742007000400000FFFF71
:1011300010B5401EB0F1807F01D3012010BD4FF0EB
:10114000E02460610F21601701F002FA0020A06125
:1011500007202061002010BD7047704710B590F83F
:101160003C20012A22D0012280F83C20CA688C68E9
:1011700022F4407222434C6822F4806222430C68BD
:1011800022F4006222430C6922F4805222434C690B
:1011900022F400522243C969002322F480420A4308
:1011A00001684A6480F83C30002010BD022010BD68
:1011B00070B590F83C20012A19D0012400F83C4F6A
:1011C0000222427050F83C3C5A689D6822F070063A
:1011D0000A684968324325F0800529435A6050F86F
:1011E0003C2C9160447000210170084670BD0220C3
:1011F00070BD10B5040003D094F83D0010B107E0B5
:10120000012010BD002084F83C00204600F00CF8BE
:10121000022084F83D00211D206800F0D3FD01204C
:1012200084F83D00002010BD08B5006806498842DA
:1012300008D10648016841F001010160006800F032
:101240000100009008BD0000000001404438024049
:10125000022180F83D1001688A6802F00702062A20
:1012600003D00A6842F001020A60012180F83D10B3
:101270000020704770B5044690F83C00012817D054
:10128000012584F83C50022084F83D0020688268E3
:1012900022F0770222F47F4282600868502830D022
:1012A0000DDC20284DD005DC98B310283BD148E058
:1012B000022070BD302844D0402834D139E0602865
:1012C00028D0702806D0B0F5805F2CD0B0F5005F34
:1012D00029D10AE0CB68D1E90121206800F0E3FDC3
:1012E0002068816841F0770109E0CB68D1E90121EC
:1012F000206800F0D8FD2068816841F48041816059
:1013000011E0CA684968206800F0A2FE50212068F8
:1013100007E016E0CA684968206800F0EBFE60212B
:10132000206800F0CAFD84F83D50002084F83C009D
:1013300070BDCA684968206800F08AFE40212068B4
:10134000EFE7226801461046EBE700000068016CF9
:10135000024A118000214162704700000000002015
:101360002DE9F041044690F83C000D4601283DD09F
:10137000012684F83C60022084F83D00AAB3042AC8
:1013800046D02068082A55D0D5E90027E968036AC5
:1013900023F480530362D0F81CC0036A2CF4407C11
:1013A0004CEA07274FF6FF7C27F470470CEA01311F
:1013B00039434FF4204723F4204307EA02321A430B
:1013C000C16102622068C16921F44061C161206885
:1013D000C169AA6841EA0221C0F81C1084F83D6086
:1013E000002084F83C00BDE8F08101E00220FAE72B
:1013F000D5E90012EB68206800F03CFE20688169A6
:1014000021F00C01816120688169AA6811430FE015
:10141000D5E90012EB68206800F07EFE2068816943
:1014200021F44061816120688169AA6841EA022152
:101430008161D3E7D5E9002C2F7B016A21F480710B
:101440000162C169036A21F0030141EA0C0121F044
:10145000F00C39074FF420674CEA116123F4206344
:1014600007EA02221A43C16102622068C16921F0C1
:101470000C01C1612068C169AA681143ACE710B5CD
:10148000040003D094F83D0010B107E0012010BD26
:10149000002084F83C00204600F00CF8022084F87C
:1014A0003D00211D206800F08DFC012084F83D00E6
:1014B000002010BD10B586B0044614216846FEF722
:1014C000B7FE2068B0F1804F28D11548002102688E
:1014D00042F001020260006800F00100059010482F
:1014E0001038026842F002020260006800F0020058
:1014F00005904FF4006000900220CDE90101012029
:10150000CDE9031069460748FFF71CFA002211468F
:101510001C20FFF763FB1C20FFF752FB06B010BD39
:10152000403802400004024010B50268044631B160
:10153000042908D008291AD00C2908D11BE0D0684A
:1015400040F0020002E0D06840F00400D0600122C8
:10155000206800F09BFC2068816801F007010629E3
:1015600003D0016841F001010160002010BDD06886
:1015700040F00800EAE7D06840F01000E6E770B5F8
:101580000446006801694FF00005C943890715D476
:10159000C168C943890711D4E91E01610120207780
:1015A000206880698007204602D0FFF7CFFE04E064
:1015B00000F0C2F8204600F044F925772068016960
:1015C000C943490717D4C168C943490713D46FF009
:1015D00004010161022020772068806910F4407FB7
:1015E000204602D0FFF7B2FE04E000F0A5F8204646
:1015F00000F027F9257720680169C943090716D447
:10160000C168C943090712D46FF0080101610420C1
:1016100020772068C0698007204602D0FFF796FE39
:1016200004E000F089F8204600F00BF925772068E7
:101630000169C943C90617D4C168C943C90613D48F
:101640006FF010010161082020772068C06910F454
:10165000407F204602D0FFF779FE04E000F06CF8EE
:10166000204600F0EEF8257720680169C943C907D4
:1016700008D1C168C943C90704D1891E0161204648
:1016800000F002F920680169C943090609D4C1685C
:10169000C943090605D46FF0800101612046FFF7B8
:1016A0005BFD20680169C943490609D4C168C94383
:1016B000490605D46FF040010161204600F0E5F8CD
:1016C00020680169C94389060BD4C168C9438906EA
:1016D00007D46FF0200101612046BDE87040FFF79C
:1016E0003CBD70BD10B586B0044614216846FEF7B7
:1016F0009FFD0E492068884216D10D4800210268DE
:1017000042F001020260006800F0010005904FF411
:10171000807000900220CDE901010120CDE9031085
:1017200069460448FFF70EF906B010BD00000140FD
:101730003038024000000240704770B5044690F80F
:101740003C000D4601280DD0012684F83C600220A3
:1017500084F83D0042B1042A18D0082A2AD00C2A65
:101760004DD139E0022070BD206800F0AFFB206849
:10177000816941F0080181612068816921F00401DB
:101780008161206881692A69114311E0206800F0B5
:10179000CDFB2068816941F4006181612068816925
:1017A00021F480618161206881692A6941EA02210E
:1017B000816124E0206800F0EFFB2068C16941F0FE
:1017C0000801C1612068C16921F00401C16120687C
:1017D000C1692A69114311E0206800F011FC2068FA
:1017E000C16941F40061C1612068C16921F480616F
:1017F000C1612068C1692A6941EA0221C16184F896
:101800003D60002084F83C0070BD10B5040003D09A
:1018100094F83D0010B107E0012010BD002084F8CD
:101820003C00204600F00CF8022084F83D00211D09
:10183000206800F0C7FA012084F83D00002010BDA8
:101840007047704710B504460068012200F01EFB87
:101850000B492068884202D00A49884203D1416C72
:1018600041F4004141642068816801F007010629C4
:1018700003D0016841F001010160002010BD0000AB
:1018800000000140000401407047704770470000AD
:1018900070B5026804461068D168536910F00F0FE4
:1018A00050D003F0010501F4907635435DD0C207B6
:1018B00005D0CA0503D5E26B42F00102E26342079C
:1018C00005D5DA0703D0E26B42F00202E263820739
:1018D00005D5DA0703D0E26B42F00402E2630207A7
:1018E00005D5DA0703D0E26B42F00802E263E26B4F
:1018F000002A33D0800604D5880602D5204600F0A1
:101900003CFC20684069E16BC0F38010090700D4FB
:1019100028B3204600F023FC2068416949061AD507
:10192000416921F040014161606BA0B11B49016533
:10193000606BFEF7E2FF002810D0606B016DBDE820
:1019400070400847830610D58B060ED52046BDE8AB
:10195000704000F012BC2046FFF798FF70BD204693
:10196000FFF794FF0020E06370BD030606D50B0669
:1019700004D52046BDE8704000F0A0BD4006F3D578
:101980004806F1D5D168204621F04001D1602021E0
:1019900084F8391000F0BDF870BD00004F21000838
:1019A00070B5040004D094F83900002510B106E0A9
:1019B000012070BD84F83850204600F023F8242020
:1019C00084F839002068C16821F40051C1602046C4
:1019D00000F01EFC2068016921F49041016120683B
:1019E000416921F02A0141612068C16841F4005138
:1019F000C160E563202084F8390084F83A000020B3
:101A000070BD000010B586B0044614216846FEF78C
:101A10000FFC18492068884229D11748016841F411
:101A200080210160006800F4802005901248103881
:101A3000016841F0080101600068694600F0080093
:101A400005904FF440700090022001900120029018
:101A500003200390072004900848FEF773FF00223C
:101A600011462720FFF7BAF82720FFF7A9F806B09C
:101A700010BD00000048004040380240000C024009
:101A800090F83A30202B22D1F9B1F2B190F83830E9
:101A9000012B1CD081628285C2850021C163222274
:101AA00080F83A2080F838100168CA6842F48072E1
:101AB000CA6001684A6942F001024A610068C1686F
:101AC00041F02001C16000207047012070470220D2
:101AD0007047704790F83930202B18D1A9B1A2B1C6
:101AE00090F83830012B12D001628284C284002128
:101AF000C163212280F8392080F838100068C1685D
:101B000041F08001C1600020704701207047022031
:101B100070477047FEE700007FB50024114800942D
:101B2000019402940E490394C0E900148460046196
:101B3000047680F820400C49C0E90A140125C561EB
:101B4000C46080F830404561FEF70BFD0820CDE908
:101B50000005694602940348FEF75AFC7FBD000069
:101B6000002001402C0000200100000F00B587B0CC
:101B700014216846FEF75CFB15480021026842F01C
:101B800010020260026802F010020592026842F040
:101B900001020260026802F001020592026842F04E
:101BA00002020260026802F002020592026842F03C
:101BB000080202600068029100F008000590782099
:101BC000CDE9000169460348FEF7BCFE07B000BD41
:101BD000303802400010024010B596B000240F9437
:101BE00010941194129413941C2108A81494FEF7D5
:101BF0001FFB20216846FEF71BFB1F481D490160A3
:101C00005421C0E9011440F2E731C0E903144461F2
:101C10008461FFF7EEFA4FF480500F900FA9164839
:101C2000FFF728FB1448FFF7F0FD139413A912489F
:101C30001494FFF7BDFA6020CDE908040A940B94D0
:101C40000C940D94002208A90B480E94FFF775FD23
:101C500000944FF40050CDE90440029401940394A1
:101C6000694605480794FFF779FA0348FFF73AFDFC
:101C700016B010BD000001408800002010B586B0ED
:101C800000241348059404940094019402944FF0A6
:101C90008041039401602A21C0E901144FF6FF71CD
:101CA000C0E9031480218161FFF7E9FB049404A9D2
:101CB00007480594FFF77CFA0120CDE90040029423
:101CC0000C22694602480394FFF74AFB06B010BD98
:101CD000C8000020FEE7704770477047FEF716BF48
:101CE00030B593B030216846FEF7A2FA14210CA853
:101CF000FEF79EFA19480025016841F08051016005
:101D0000006800F0805011901548016841F480414E
:101D100001600068022400F48040119001200390CB
:101D200010200490009406940820CDE90750542018
:101D3000CDE9090404200B906846FFF76BF80CA965
:101D40000F2081E831004FF4A0500F90E002109076
:101D500002210CA8FEF774FF13B030BD40380240DA
:101D6000007000401048016841F4700101600F48A4
:101D7000016841F0010101600C4A00210832116044
:101D800002680B4B1A400260031D0A4A1A6002687F
:101D900022F48022026005480C3001600249580696
:101DA000803908607047000088ED00E0003802408C
:101DB000FFFFF6FE103000240148FFF7E0BB0000F3
:101DC000C8000020F0B50268254C264D264E274F4E
:101DD000274B4FF0804CA04209D0604507D0A84265
:101DE00005D0B04203D0B84201D0984204D122F0CD
:101DF000700E4A6842EA0E02A0421BD0604519D01C
:101E0000A84217D0B04215D0B84213D0984211D092
:101E1000184DA8420ED0184DA8420BD0174DA8421D
:101E200008D0174DA84205D0164DA84202D0164D35
:101E3000A84203D122F44075CA682A434D6922F0B2
:101E400080022A4302608A68C2620A688262A042F3
:101E500001D0984201D10969016301214161F0BDBE
:101E6000000001400004004000080040000C004059
:101E7000000401400040014000440140004801408E
:101E800000180040001C00400020004010B501F088
:101E90001F030121046A99408C430462016A9A403D
:101EA0001143016210BD10B5846842EA032224F494
:101EB0007F440A432243826010BD826822F0700290
:101EC0000A4342F00701816070470000F0B5026AE2
:101ED00022F001020262036A42688469124E24F011
:101EE00073050C682C4323F002058B682B430D4DC2
:101EF000A84201D0B04205D123F00807CB683B438C
:101F000023F00403A84201D0B04205D14D6922F468
:101F1000407215438A692A4342608461496841637B
:101F20000362F0BD0000014000040140F0B5026A08
:101F300022F010020262026A436884690D6824F488
:101F4000E64444EA05248D6822F0200242EA0512A4
:101F50000F4D104EA84201D0B04206D1CF6822F0FA
:101F6000800242EA071222F04002A84201D0B042A9
:101F700007D14D6923F4406343EA85038D6943EA41
:101F8000850343608461496881630262F0BD00009B
:101F90000000014000040140F0B5026A22F48072A2
:101FA0000262026A4368C46922F4007224F0730575
:101FB0000C68124E2C438D6842EA05220E4DA84251
:101FC00001D0B04206D1CF6822F4006242EA072273
:101FD00022F48062A84201D0B04207D14D6923F4B7
:101FE000405343EA05138D6943EA05134360C46116
:101FF0004968C1630262F0BD000001400004014075
:1020000030B5026A22F480520262046A4268C369EF
:102010000D6823F4E64343EA05238D6824F4005455
:1020200044EA0534084DA84202D0084DA84204D124
:102030004D6922F4804242EA85124260C3614968D8
:102040000164046230BD0000000001400004014052
:1020500010B5036A046A24F001040462846924F060
:10206000F00444EA021423F00A020A438461026283
:1020700010BD000070B5046A24F001040462846994
:10208000056A154EB04214D0B0F1804F11D0134EF6
:10209000B0420ED0124EB0420BD0124EB04208D019
:1020A000114EB04205D0114EB04202D0104EB04297
:1020B00003D124F00304144301E044F001041A079F
:1020C00024F0F00444EA126225F00A0301F00A0148
:1020D00019438261016270BD0000014000040040AC
:1020E00000080040000C0040000401400040014096
:1020F0000018004010B5036A23F0100303628369DF
:10210000046A23F4704343EA023224F0A00343EA52
:1021100001118261016210BD30B5046A24F010041F
:1021200004628469056A24F4407444EA022222F4B9
:1021300070444FF6FF7202EA03322243A02425F0D6
:10214000A00304EA011119438261016230BD10B598
:10215000806B0021C185C184FFF798FB10BD016829
:10216000CA6822F49072CA6001684A6922F00102CA
:102170004A61202180F83A10704710B590F83A1063
:10218000222901D0022010BD8168B1F5805F11D0F5
:102190000169002901681FD0496801F07F03816A45
:1021A0004A1C82620B70C18D491E0904090CC1854D
:1021B00018D02BE00269816A002A0268526805D0B3
:1021C000D2B20A80816A491C8162ECE7C2F308023C
:1021D0000A80816A891CF7E74A68816A4B1C83621E
:1021E0000A70E0E70168CA6822F02002CA6001684C
:1021F000CA6822F48072CA6001684A6922F001024A
:102200004A61202180F83A10FFF763FC002010BDDE
:102210002DE9F041044600680169E26821F440516B
:10222000114301612169A068E269084361691143B2
:1022300022680843D16849F20C6399430143D16095
:1022400020684169A26921F4407111434161E2694A
:102250006425B2F5004F9748974922684FF032083D
:102260003FD08A4201D082427CD1FEF791FD00EB43
:10227000C00101EB001061688900B0FBF1F6FEF7C8
:1022800087FD00EBC00101EB001061688900B0FB25
:10229000F1F0B0FBF5F06FF01801484306EB800158
:1022A00008EB0110B0FBF5F000F0F006FEF770FD52
:1022B00000EBC00101EB001061688900B0FBF1F098
:1022C000B0FBF5F006EB0016FEF762FD00EBC00177
:1022D00001EB001061688900B0FBF1F7FEF758FDD3
:1022E000D2E08A4201D082423DD1FEF751FD00EB9F
:1022F000C00101EB001061684900B0FBF1F0B0FBD8
:10230000F5F00601FEF744FD00EBC00101EB001003
:1023100061684900B0FBF1F7FEF73AFD00EBC00140
:1023200001EB001061684900B0FBF1F0B0FBF5F083
:102330006FF01801484307EB800108EBC100B0FBC8
:10234000F5F000F0F80006EB4006FEF721FD00EB8B
:10235000C00101EB001061684900B0FBF1F7FEF726
:1023600017FD3CE055E0FEF703FD00EBC00101EB7B
:10237000001061684900B0FBF1F0B0FBF5F0060118
:10238000FEF7F6FC00EBC00101EB001061684900AC
:10239000B0FBF1F7FEF7ECFC00EBC00101EB001025
:1023A00061684900B0FBF1F0B0FBF5F06FF0180187
:1023B000484307EB800108EBC100B0FBF5F000F0EB
:1023C000F80006EB4006FEF7D3FC00EBC00101EB82
:1023D000001061684900B0FBF1F7FEF7C9FC00EBA3
:1023E000C00101EB001061684900B0FBF1F0B0FBE7
:1023F000F5F06FF01801484307EB800108EBC100CE
:10240000B0FBF5F000F00700216830448860BDE8BB
:10241000F081FEF7ADFC00EBC00101EB001061683C
:102420008900B0FBF1F6FEF7A3FC00EBC00101EB65
:10243000001061688900B0FBF1F0B0FBF5F06FF0BF
:102440001801484306EB800108EB0110B0FBF5F0E2
:1024500000F0F006FEF78CFC00EBC00101EB001071
:1024600061688900B0FBF1F0B0FBF5F006EB0016F7
:10247000FEF77EFC00EBC00101EB001061688900F3
:10248000B0FBF1F7FEF774FC00EBC00101EB0010AC
:1024900061688900B0FBF1F0B0FBF5F06FF0180156
:1024A000484307EB800108EB0110B0FBF5F000F0AA
:1024B0000F00A9E7001401400010014090F8391006
:1024C000212901D0022070478168B1F5805F016A3F
:1024D0000BD04A1C0262026809785160C18C491E07
:1024E0000904090CC1840ED017E009880268C1F301
:1024F0000801516001690029016A02D0491C01628A
:10250000ECE7891CFBE70168CA6822F08002CA6018
:102510000068C16841F04001C160002070470000C0
:102520000148FFF7B5B9000008010020FEE70000F0
:102530000FB4054B10B503A9044A029800F028F81F
:1025400010BC5DF814FB00004927000814000020AF
:102550000907090E002804DB00F1E02080F80014D0
:10256000704700F00F0000F1E02080F8141D704764
:1025700002E008C8121F08C1002AFAD1704770474C
:10258000002001E001C1121F002AFBD170470000AA
:102590002DE9FF4F8BB09A460F460546002606E010
:1025A00025280BD052460D9990476D1C761C287833
:1025B0000028F5D10FB03046BDE8F08F0024A046CA
:1025C0000122604900E0044315F8013F203B02FA74
:1025D00003F00842F7D128782E2817D115F8010FFB
:1025E00044F004042A280ED06FF02F022878A0F1BE
:1025F000300109290AD808EB880102EB410100EB00
:1026000001086D1CF2E757F8048B6D1C28786928C7
:102610003ED006DC0028CDD063280BD0642804D13E
:1026200036E0732810D075284BD052460D9990474C
:10263000761C85E017F8040B8DF8000000208DF85B
:102640000100E946012003E057F8049B4FF0FF30FA
:1026500061074FF0000401D40AE0641C44450DDA20
:102660008442FADB19F804100029F6D106E0641C54
:102670008442FCDB19F804100029F8D1264404E058
:1026800019F8010B52460D999047641EF8D257E095
:1026900001CF4FF00A0B002802DA40422D2102E060
:1026A000210504D52B218DF82410012103E0E10739
:1026B00005D02021F7E70DF1200908910CE0002159
:1026C000F9E701CF4FF00A0BF9E75946FDF7C2FDD4
:1026D00001F1300209F8012D0028F6D1ADEB090017
:1026E00000F1200B600701D44FF00108D84502DD4E
:1026F000A8EB0B0000E000208046002406E009A8BB
:102700005246005D0D999047641C761C08988442DF
:10271000F5DB04E0302052460D999047761CB8F165
:102720000001A8F10108F5DC05E019F8010B52469B
:102730000D999047761CBBF10001ABF1010BF4DC65
:102740006D1C34E70928010008490968C90706D04B
:10275000064980390968CA074FF0604101D17047C6
:1027600000BF0A68002AFBD008707047800E00E0A6
:102770001CB5FEF7D3F9FFF7B3FAFFF7F7F9FFF748
:102780002BFAFFF77BFAFFF7C7F9002458490094AA
:102790005648019408600846FEF727F80094002286
:1027A000694653480194FDF7FFFF51485149943061
:1027B00001604FF41651C0E901140C21C460C0E956
:1027C00004418461C461FFF7EBF849481430FEF717
:1027D0003FFD474800211430FFF734F84448543097
:1027E000FEF736FD42480C215430FEF79DFEDFF81F
:1027F0000081414D08F114084FF47A7608212846EB
:10280000FEF778F901285ED05FF00001D8F80020CB
:10281000D162C8F80C10D8F8000089084163102173
:102820002846FEF767F9012850D034A0FFF780FE54
:1028300020212846FEF75EF901284ED00023002211
:1028400011462B48FEF716F800212948FEF71FF81D
:1028500027484838FDF732FF254831464838FDF70C
:10286000DBFE0028F8D122484838FDF777FE87B212
:1028700040212846FEF73EF9012831D028A0FFF775
:1028800057FE31A1D1E90001CDE900016846FDF70D
:10289000DAFC82B2164869469430FFF71BF96846A5
:1028A000FDF7D1FC124982B25C3901F1F000FFF76B
:1028B000E7F80F4A69465C3A25A0FFF739FE304633
:1028C000FEF72EF89AE740F2CF719FE7244F25A03C
:1028D0003988FFF72DFE3C80AAE740F24573AEE74A
:1028E000394623A0FFF724FECBE700000074004028
:1028F000740000200048004000100240504C454148
:102900005345205455524E204F4E205357322046A7
:102910004F52205245414420504552494F440A00ED
:10292000504C45415345205455524E204F4E205354
:10293000573420464F52205245414420564F4C5464
:102940004147450A0000000048656C6C6F000000BC
:10295000546578743A2025732C2025730A000000F2
:102960000000002056616C75653A2025640A00005D
:10297000416E616C6F672076616C75653A202564E5
:102980000A00000000000000000000000102030433
:10299000060708090000000001020304BC29000822
:1029A000000000201800000070250008D42900084D
:1029B00018000020300500008025000800000000FD
:1029C0000100000010000000000000000024F400DE
:0429D0000000000003
:040000050800018965
:00000001FF
